{
  "contractName": "Escrow",
  "abi": [
    {
      "constant": true,
      "inputs": [],
      "name": "owner",
      "outputs": [
        {
          "name": "",
          "type": "address"
        }
      ],
      "payable": false,
      "stateMutability": "view",
      "type": "function"
    },
    {
      "constant": true,
      "inputs": [
        {
          "name": "",
          "type": "address"
        },
        {
          "name": "",
          "type": "address"
        }
      ],
      "name": "balances",
      "outputs": [
        {
          "name": "",
          "type": "uint256"
        }
      ],
      "payable": false,
      "stateMutability": "view",
      "type": "function"
    },
    {
      "constant": true,
      "inputs": [],
      "name": "fee",
      "outputs": [
        {
          "name": "",
          "type": "uint256"
        }
      ],
      "payable": false,
      "stateMutability": "view",
      "type": "function"
    },
    {
      "anonymous": false,
      "inputs": [
        {
          "indexed": false,
          "name": "message",
          "type": "string"
        },
        {
          "indexed": false,
          "name": "value",
          "type": "uint256"
        }
      ],
      "name": "Print",
      "type": "event"
    },
    {
      "constant": false,
      "inputs": [],
      "name": "escrow",
      "outputs": [],
      "payable": false,
      "stateMutability": "nonpayable",
      "type": "function"
    },
    {
      "constant": false,
      "inputs": [
        {
          "name": "price",
          "type": "uint256"
        }
      ],
      "name": "setFee",
      "outputs": [],
      "payable": false,
      "stateMutability": "nonpayable",
      "type": "function"
    },
    {
      "constant": false,
      "inputs": [
        {
          "name": "payee",
          "type": "address"
        }
      ],
      "name": "start",
      "outputs": [],
      "payable": true,
      "stateMutability": "payable",
      "type": "function"
    },
    {
      "constant": false,
      "inputs": [
        {
          "name": "payer",
          "type": "address"
        },
        {
          "name": "payee",
          "type": "address"
        },
        {
          "name": "portion",
          "type": "uint256"
        }
      ],
      "name": "end",
      "outputs": [
        {
          "name": "",
          "type": "bool"
        }
      ],
      "payable": false,
      "stateMutability": "nonpayable",
      "type": "function"
    }
  ],
  "bytecode": "0x6060604052341561000f57600080fd5b6108be8061001e6000396000f300606060405260043610610083576000357c0100000000000000000000000000000000000000000000000000000000900463ffffffff168063545c285c1461008857806369fe0e2d146101015780638da5cb5b14610124578063c23f001f14610179578063dd0b281e146101e5578063ddca3f4314610213578063e2fdcc171461023c575b600080fd5b341561009357600080fd5b6100e7600480803573ffffffffffffffffffffffffffffffffffffffff1690602001909190803573ffffffffffffffffffffffffffffffffffffffff16906020019091908035906020019091905050610251565b604051808215151515815260200191505060405180910390f35b341561010c57600080fd5b6101226004808035906020019091905050610699565b005b341561012f57600080fd5b6101376106fe565b604051808273ffffffffffffffffffffffffffffffffffffffff1673ffffffffffffffffffffffffffffffffffffffff16815260200191505060405180910390f35b341561018457600080fd5b6101cf600480803573ffffffffffffffffffffffffffffffffffffffff1690602001909190803573ffffffffffffffffffffffffffffffffffffffff16906020019091905050610723565b6040518082815260200191505060405180910390f35b610211600480803573ffffffffffffffffffffffffffffffffffffffff16906020019091905050610748565b005b341561021e57600080fd5b61022661084a565b6040518082815260200191505060405180910390f35b341561024757600080fd5b61024f610850565b005b6000806000806000806000809054906101000a900473ffffffffffffffffffffffffffffffffffffffff1673ffffffffffffffffffffffffffffffffffffffff163373ffffffffffffffffffffffffffffffffffffffff161415156102b557600080fd5b600260008a73ffffffffffffffffffffffffffffffffffffffff1673ffffffffffffffffffffffffffffffffffffffff16815260200190815260200160002060008973ffffffffffffffffffffffffffffffffffffffff1673ffffffffffffffffffffffffffffffffffffffff1681526020019081526020016000205494507f5ecf36f705605fd144b15d76100246c2b9af70ede5b61b9f6b4f2a53c577ee14856040518080602001838152602001828103825260058152602001807f76616c75650000000000000000000000000000000000000000000000000000008152506020019250505060405180910390a186620f42408115156103b257fe5b04858115156103bd57fe5b049350600154620f42408115156103d057fe5b04848115156103db57fe5b049250828403915083850390507f5ecf36f705605fd144b15d76100246c2b9af70ede5b61b9f6b4f2a53c577ee14846040518080602001838152602001828103825260078152602001807f696e766f696365000000000000000000000000000000000000000000000000008152506020019250505060405180910390a17f5ecf36f705605fd144b15d76100246c2b9af70ede5b61b9f6b4f2a53c577ee14836040518080602001838152602001828103825260078152602001807f70616964466565000000000000000000000000000000000000000000000000008152506020019250505060405180910390a17f5ecf36f705605fd144b15d76100246c2b9af70ede5b61b9f6b4f2a53c577ee14826040518080602001838152602001828103825260078152602001807f7061796d656e74000000000000000000000000000000000000000000000000008152506020019250505060405180910390a17f5ecf36f705605fd144b15d76100246c2b9af70ede5b61b9f6b4f2a53c577ee14816040518080602001838152602001828103825260088152602001807f72657475726e65640000000000000000000000000000000000000000000000008152506020019250505060405180910390a18773ffffffffffffffffffffffffffffffffffffffff166108fc839081150290604051600060405180830381858888f1935050505015156105e857600080fd5b8873ffffffffffffffffffffffffffffffffffffffff166108fc829081150290604051600060405180830381858888f19350505050151561062857600080fd5b6000809054906101000a900473ffffffffffffffffffffffffffffffffffffffff1673ffffffffffffffffffffffffffffffffffffffff166108fc849081150290604051600060405180830381858888f19350505050151561068957600080fd5b6001955050505050509392505050565b6000809054906101000a900473ffffffffffffffffffffffffffffffffffffffff1673ffffffffffffffffffffffffffffffffffffffff163373ffffffffffffffffffffffffffffffffffffffff161415156106f457600080fd5b8060018190555050565b6000809054906101000a900473ffffffffffffffffffffffffffffffffffffffff1681565b6002602052816000526040600020602052806000526040600020600091509150505481565b34600260003373ffffffffffffffffffffffffffffffffffffffff1673ffffffffffffffffffffffffffffffffffffffff16815260200190815260200160002060008373ffffffffffffffffffffffffffffffffffffffff1673ffffffffffffffffffffffffffffffffffffffff1681526020019081526020016000205401600260003373ffffffffffffffffffffffffffffffffffffffff1673ffffffffffffffffffffffffffffffffffffffff16815260200190815260200160002060008373ffffffffffffffffffffffffffffffffffffffff1673ffffffffffffffffffffffffffffffffffffffff1681526020019081526020016000208190555050565b60015481565b336000806101000a81548173ffffffffffffffffffffffffffffffffffffffff021916908373ffffffffffffffffffffffffffffffffffffffff1602179055505600a165627a7a723058202e2400187fa650d4608f8ae723eabc8e3bedf1570a642acdc5bb796ad8ae60ce0029",
  "source": "pragma solidity ^0.4.13;\n\ncontract Escrow {\n  address public owner;\n  uint public fee;\n\n  //Balances temporarily made public for testing; to be removed\n  mapping (address =>  mapping (address => uint)) public balances;\n\n  //Events for debugging\n  event Print(string message, uint value);\n\n  function escrow() public {\n    owner = msg.sender;\n  }\n\n  modifier onlyOwner() {\n    require(msg.sender == owner);\n    _;\n  }\n\n  //Fee should be set in PPM\n  function setFee(uint price) onlyOwner external {\n    fee = price;\n  }\n\n  function start(address payee) payable external {\n    balances[msg.sender][payee] = balances[msg.sender][payee] + msg.value;\n  }\n\n  //Portion should be percentage of value to pay in PPM\n  function end(address payer, address payee, uint portion) onlyOwner external returns(bool) {\n    uint value = balances[payer][payee];\n    Print(\"value\", value);\n\n    uint invoice = value / (1000000 / portion);\n    uint paidFee = invoice / (1000000 / fee);\n    uint payment = invoice - paidFee;\n    uint returned = value - invoice;\n    Print(\"invoice\", invoice);\n    Print(\"paidFee\", paidFee);\n    Print(\"payment\", payment);\n    Print(\"returned\", returned);\n\n    payee.transfer(payment);\n    payer.transfer(returned);\n    owner.transfer(paidFee);\n    \n    return true;\n  }\n}",
  "sourcePath": "/home/jonathan/git/dimpull-frontend/src/contracts/Escrow.sol",
  "compiler": {
    "name": "solc",
    "version": "0.4.19+commit.c4cbbb05.Emscripten.clang"
  },
  "schemaVersion": "2.0.0",
  "updatedAt": "2018-03-03T22:57:37.260Z"
}