{
  "contractName": "Escrow",
  "abi": [
    {
      "constant": true,
      "inputs": [],
      "name": "owner",
      "outputs": [
        {
          "name": "",
          "type": "address"
        }
      ],
      "payable": false,
      "stateMutability": "view",
      "type": "function"
    },
    {
      "constant": true,
      "inputs": [
        {
          "name": "",
          "type": "address"
        },
        {
          "name": "",
          "type": "address"
        }
      ],
      "name": "balances",
      "outputs": [
        {
          "name": "",
          "type": "uint256"
        }
      ],
      "payable": false,
      "stateMutability": "view",
      "type": "function"
    },
    {
      "constant": true,
      "inputs": [],
      "name": "fee",
      "outputs": [
        {
          "name": "",
          "type": "uint256"
        }
      ],
      "payable": false,
      "stateMutability": "view",
      "type": "function"
    },
    {
      "anonymous": false,
      "inputs": [
        {
          "indexed": false,
          "name": "message",
          "type": "string"
        },
        {
          "indexed": false,
          "name": "value",
          "type": "uint256"
        }
      ],
      "name": "Print",
      "type": "event"
    },
    {
      "constant": false,
      "inputs": [],
      "name": "escrow",
      "outputs": [
        {
          "name": "",
          "type": "address"
        }
      ],
      "payable": false,
      "stateMutability": "nonpayable",
      "type": "function"
    },
    {
      "constant": false,
      "inputs": [
        {
          "name": "price",
          "type": "uint256"
        }
      ],
      "name": "setFee",
      "outputs": [],
      "payable": false,
      "stateMutability": "nonpayable",
      "type": "function"
    },
    {
      "constant": false,
      "inputs": [
        {
          "name": "payee",
          "type": "address"
        }
      ],
      "name": "start",
      "outputs": [
        {
          "name": "",
          "type": "uint256"
        }
      ],
      "payable": true,
      "stateMutability": "payable",
      "type": "function"
    },
    {
      "constant": false,
      "inputs": [
        {
          "name": "payer",
          "type": "address"
        },
        {
          "name": "payee",
          "type": "address"
        }
      ],
      "name": "end",
      "outputs": [
        {
          "name": "",
          "type": "uint256"
        }
      ],
      "payable": true,
      "stateMutability": "payable",
      "type": "function"
    },
    {
      "constant": false,
      "inputs": [],
      "name": "s",
      "outputs": [
        {
          "name": "",
          "type": "address"
        }
      ],
      "payable": false,
      "stateMutability": "nonpayable",
      "type": "function"
    }
  ],
  "bytecode": "0x6060604052341561000f57600080fd5b6106d88061001e6000396000f30060606040526004361061008e576000357c0100000000000000000000000000000000000000000000000000000000900463ffffffff16806369fe0e2d1461009357806386b714e2146100b65780638da5cb5b1461010b578063a528915814610160578063c23f001f146101c1578063dd0b281e1461022d578063ddca3f431461026f578063e2fdcc1714610298575b600080fd5b341561009e57600080fd5b6100b460048080359060200190919050506102ed565b005b34156100c157600080fd5b6100c9610352565b604051808273ffffffffffffffffffffffffffffffffffffffff1673ffffffffffffffffffffffffffffffffffffffff16815260200191505060405180910390f35b341561011657600080fd5b61011e6103b4565b604051808273ffffffffffffffffffffffffffffffffffffffff1673ffffffffffffffffffffffffffffffffffffffff16815260200191505060405180910390f35b6101ab600480803573ffffffffffffffffffffffffffffffffffffffff1690602001909190803573ffffffffffffffffffffffffffffffffffffffff169060200190919050506103d9565b6040518082815260200191505060405180910390f35b34156101cc57600080fd5b610217600480803573ffffffffffffffffffffffffffffffffffffffff1690602001909190803573ffffffffffffffffffffffffffffffffffffffff16906020019091905050610465565b6040518082815260200191505060405180910390f35b610259600480803573ffffffffffffffffffffffffffffffffffffffff1690602001909190505061048a565b6040518082815260200191505060405180910390f35b341561027a57600080fd5b61028261061f565b6040518082815260200191505060405180910390f35b34156102a357600080fd5b6102ab610625565b604051808273ffffffffffffffffffffffffffffffffffffffff1673ffffffffffffffffffffffffffffffffffffffff16815260200191505060405180910390f35b6000809054906101000a900473ffffffffffffffffffffffffffffffffffffffff1673ffffffffffffffffffffffffffffffffffffffff163373ffffffffffffffffffffffffffffffffffffffff1614151561034857600080fd5b8060018190555050565b60008073e0f5206bbd039e7b0592d8918820024e2a7437b990508073ffffffffffffffffffffffffffffffffffffffff166108fc60019081150290604051600060405180830381858888f1935050505015156103ad57600080fd5b8091505090565b6000809054906101000a900473ffffffffffffffffffffffffffffffffffffffff1681565b600080600260008573ffffffffffffffffffffffffffffffffffffffff1673ffffffffffffffffffffffffffffffffffffffff16815260200190815260200160002060008473ffffffffffffffffffffffffffffffffffffffff1673ffffffffffffffffffffffffffffffffffffffff1681526020019081526020016000205490508091505092915050565b6002602052816000526040600020602052806000526040600020600091509150505481565b600061051b34600260003373ffffffffffffffffffffffffffffffffffffffff1673ffffffffffffffffffffffffffffffffffffffff16815260200190815260200160002060008573ffffffffffffffffffffffffffffffffffffffff1673ffffffffffffffffffffffffffffffffffffffff1681526020019081526020016000205461068e90919063ffffffff16565b600260003373ffffffffffffffffffffffffffffffffffffffff1673ffffffffffffffffffffffffffffffffffffffff16815260200190815260200160002060008473ffffffffffffffffffffffffffffffffffffffff1673ffffffffffffffffffffffffffffffffffffffff16815260200190815260200160002081905550600260003373ffffffffffffffffffffffffffffffffffffffff1673ffffffffffffffffffffffffffffffffffffffff16815260200190815260200160002060008373ffffffffffffffffffffffffffffffffffffffff1673ffffffffffffffffffffffffffffffffffffffff168152602001908152602001600020549050919050565b60015481565b6000336000806101000a81548173ffffffffffffffffffffffffffffffffffffffff021916908373ffffffffffffffffffffffffffffffffffffffff1602179055506000809054906101000a900473ffffffffffffffffffffffffffffffffffffffff16905090565b60008082840190508381101515156106a257fe5b80915050929150505600a165627a7a72305820fe91c2fed7c684897f99ad9516489d6c4e6c11b9a8ff52b75f3e6fb9a32d5c0e0029",
  "source": "pragma solidity ^0.4.13;\n\nimport './SafeMath.sol';\n\ncontract Escrow {\n  using SafeMath for uint256;\n  address public owner;\n  uint public fee;\n\n  //Balances temporarily made public for testing; to be removed\n  mapping (address =>  mapping (address => uint)) public balances;\n\n  event Print(string message, uint value);\n  \n  function escrow() public returns(address){\n    owner = msg.sender;\n    return owner;\n  }\n\n  modifier onlyOwner() {\n    require(msg.sender == owner);\n    _;\n  }\n\n  //Fee should be set in PPM\n  function setFee(uint price) onlyOwner external {\n    fee = price;\n  }\n\n  function start(address payee) payable external returns(uint){\n    balances[msg.sender][payee] = balances[msg.sender][payee].add(msg.value);\n    return balances[msg.sender][payee];\n  }\n\n  //Portion should be percentage of value to pay in PPM\n  function end(address payer, address payee) payable external returns(uint) {\n    uint value = balances[payer][payee];\n    // uint lessvalue = value.sub(180000);\n    // Print(\"value\", value);\n    // // uint mil = 1000000;\n    // // uint paidFee = value.div(mil.div(fee));\n    // uint paidFee = \n\n    // uint payment = value.sub(paidFee);\n    // Print(\"paidFee\", paidFee);\n    // Print(\"payment\", value);\n    // payee.transfer(1);\n    // owner.transfer(paidFee);\n    return value;\n  }\n\n  function s() returns(address) {\n    address payee = 0xE0f5206BBD039e7b0592d8918820024e2a7437b9;\n    payee.transfer(1);\n    return payee;\n  }\n}\n",
  "sourcePath": "/home/jonathan/git/dimpull-frontend/src/contracts/Escrow.sol",
  "compiler": {
    "name": "solc",
    "version": "0.4.19+commit.c4cbbb05.Emscripten.clang"
  },
  "schemaVersion": "2.0.0",
  "updatedAt": "2018-04-07T17:22:38.599Z"
}