{
  "contractName": "Escrow",
  "abi": [
    {
      "constant": false,
      "inputs": [
        {
          "name": "payer",
          "type": "address"
        },
        {
          "name": "payee",
          "type": "address"
        },
        {
          "name": "portion",
          "type": "uint256"
        }
      ],
      "name": "end",
      "outputs": [
        {
          "name": "",
          "type": "bool"
        }
      ],
      "payable": false,
      "stateMutability": "nonpayable",
      "type": "function"
    },
    {
      "constant": false,
      "inputs": [
        {
          "name": "price",
          "type": "uint256"
        }
      ],
      "name": "setFee",
      "outputs": [],
      "payable": false,
      "stateMutability": "nonpayable",
      "type": "function"
    },
    {
      "constant": true,
      "inputs": [],
      "name": "owner",
      "outputs": [
        {
          "name": "",
          "type": "address"
        }
      ],
      "payable": false,
      "stateMutability": "view",
      "type": "function"
    },
    {
      "constant": true,
      "inputs": [],
      "name": "getFee",
      "outputs": [
        {
          "name": "",
          "type": "uint256"
        }
      ],
      "payable": false,
      "stateMutability": "view",
      "type": "function"
    },
    {
      "constant": false,
      "inputs": [
        {
          "name": "payee",
          "type": "address"
        }
      ],
      "name": "start",
      "outputs": [],
      "payable": false,
      "stateMutability": "nonpayable",
      "type": "function"
    },
    {
      "constant": true,
      "inputs": [],
      "name": "fee",
      "outputs": [
        {
          "name": "",
          "type": "uint256"
        }
      ],
      "payable": false,
      "stateMutability": "view",
      "type": "function"
    },
    {
      "constant": false,
      "inputs": [],
      "name": "escrow",
      "outputs": [],
      "payable": false,
      "stateMutability": "nonpayable",
      "type": "function"
    }
  ],
  "bytecode": "0x6060604052341561000f57600080fd5b61056d8061001e6000396000f300606060405260043610610083576000357c0100000000000000000000000000000000000000000000000000000000900463ffffffff168063545c285c1461008857806369fe0e2d146101015780638da5cb5b14610124578063ced72f8714610179578063dd0b281e146101a2578063ddca3f43146101db578063e2fdcc1714610204575b600080fd5b341561009357600080fd5b6100e7600480803573ffffffffffffffffffffffffffffffffffffffff1690602001909190803573ffffffffffffffffffffffffffffffffffffffff16906020019091908035906020019091905050610219565b604051808215151515815260200191505060405180910390f35b341561010c57600080fd5b6101226004808035906020019091905050610433565b005b341561012f57600080fd5b61013761043d565b604051808273ffffffffffffffffffffffffffffffffffffffff1673ffffffffffffffffffffffffffffffffffffffff16815260200191505060405180910390f35b341561018457600080fd5b61018c610462565b6040518082815260200191505060405180910390f35b34156101ad57600080fd5b6101d9600480803573ffffffffffffffffffffffffffffffffffffffff1690602001909190505061046c565b005b34156101e657600080fd5b6101ee6104f9565b6040518082815260200191505060405180910390f35b341561020f57600080fd5b6102176104ff565b005b60008060008060009054906101000a900473ffffffffffffffffffffffffffffffffffffffff1673ffffffffffffffffffffffffffffffffffffffff163373ffffffffffffffffffffffffffffffffffffffff1614151561027957600080fd5b600260008773ffffffffffffffffffffffffffffffffffffffff1673ffffffffffffffffffffffffffffffffffffffff16815260200190815260200160002060008673ffffffffffffffffffffffffffffffffffffffff1673ffffffffffffffffffffffffffffffffffffffff168152602001908152602001600020549150620f42408481151561030657fe5b04820290508473ffffffffffffffffffffffffffffffffffffffff166108fc620f424060015481151561033557fe5b0460010383029081150290604051600060405180830381858888f19350505050151561036057600080fd5b8573ffffffffffffffffffffffffffffffffffffffff166108fc620f42408681151561038857fe5b0460010384029081150290604051600060405180830381858888f1935050505015156103b357600080fd5b6000809054906101000a900473ffffffffffffffffffffffffffffffffffffffff1673ffffffffffffffffffffffffffffffffffffffff166108fc620f42406001548115156103fe57fe5b0483029081150290604051600060405180830381858888f19350505050151561042657600080fd5b6001925050509392505050565b8060018190555050565b6000809054906101000a900473ffffffffffffffffffffffffffffffffffffffff1681565b6000600154905090565b34600260003373ffffffffffffffffffffffffffffffffffffffff1673ffffffffffffffffffffffffffffffffffffffff16815260200190815260200160002060008373ffffffffffffffffffffffffffffffffffffffff1673ffffffffffffffffffffffffffffffffffffffff1681526020019081526020016000206000828254019250508190555050565b60015481565b336000806101000a81548173ffffffffffffffffffffffffffffffffffffffff021916908373ffffffffffffffffffffffffffffffffffffffff1602179055505600a165627a7a72305820a892eee7c20df8a674d1a4411c26a08fa74b7a55644bb3371ecfe9c83a03b1bd0029",
  "source": "pragma solidity ^0.4.17;\n\ncontract Escrow {\n  address public owner;\n  uint public fee;\n  mapping (address =>  mapping (address => uint)) balances;\n\n  function escrow() public {\n    owner = msg.sender;\n  }\n\n  modifier onlyOwner {\n    require(msg.sender == owner);\n    _;\n  }\n\n  //Fee should be set in PPM\n  function setFee(uint price) external {\n    fee = price;\n  }\n\n  function start(address payee) external {\n    balances[msg.sender][payee] += msg.value;\n  }\n\n  //Portion should be percentage of value to pay in PPM\n  function end(address payer, address payee, uint portion) onlyOwner external returns(bool) {\n    uint value = balances[payer][payee];\n    uint payment = value * (portion / 1000000);\n    payee.transfer(payment * (1 - (fee / 1000000)));\n    payer.transfer(value * (1 - (portion / 1000000)));\n    owner.transfer(payment * (fee / 1000000));\n    return true;\n  }\n\n  function getFee() public view returns (uint) {\n    return fee;\n  }\n\n}",
  "sourcePath": "/home/jonathan/git/dimpull-frontend/src/contracts/Escrow.sol",
  "compiler": {
    "name": "solc",
    "version": "0.4.18+commit.9cf6e910.Emscripten.clang"
  },
  "schemaVersion": "1.0.1",
  "updatedAt": "2018-01-18T00:27:18.534Z"
}