{
  "contractName": "Escrow",
  "abi": [
    {
      "constant": false,
      "inputs": [
        {
          "name": "payer",
          "type": "address"
        },
        {
          "name": "payee",
          "type": "address"
        },
        {
          "name": "portion",
          "type": "uint256"
        }
      ],
      "name": "end",
      "outputs": [
        {
          "name": "",
          "type": "bool"
        }
      ],
      "payable": false,
      "stateMutability": "nonpayable",
      "type": "function"
    },
    {
      "constant": false,
      "inputs": [
        {
          "name": "fee",
          "type": "uint256"
        }
      ],
      "name": "setFee",
      "outputs": [],
      "payable": false,
      "stateMutability": "nonpayable",
      "type": "function"
    },
    {
      "constant": true,
      "inputs": [],
      "name": "getFee",
      "outputs": [
        {
          "name": "",
          "type": "uint256"
        }
      ],
      "payable": false,
      "stateMutability": "view",
      "type": "function"
    },
    {
      "constant": false,
      "inputs": [
        {
          "name": "payee",
          "type": "address"
        }
      ],
      "name": "start",
      "outputs": [],
      "payable": false,
      "stateMutability": "nonpayable",
      "type": "function"
    },
    {
      "constant": false,
      "inputs": [],
      "name": "escrow",
      "outputs": [],
      "payable": false,
      "stateMutability": "nonpayable",
      "type": "function"
    }
  ],
  "bytecode": "0x6060604052341561000f57600080fd5b6105098061001e6000396000f30060606040526004361061006d576000357c0100000000000000000000000000000000000000000000000000000000900463ffffffff168063545c285c1461007257806369fe0e2d146100eb578063ced72f871461010e578063dd0b281e14610137578063e2fdcc1714610170575b600080fd5b341561007d57600080fd5b6100d1600480803573ffffffffffffffffffffffffffffffffffffffff1690602001909190803573ffffffffffffffffffffffffffffffffffffffff16906020019091908035906020019091905050610185565b604051808215151515815260200191505060405180910390f35b34156100f657600080fd5b61010c600480803590602001909190505061039f565b005b341561011957600080fd5b610121610404565b6040518082815260200191505060405180910390f35b341561014257600080fd5b61016e600480803573ffffffffffffffffffffffffffffffffffffffff1690602001909190505061040e565b005b341561017b57600080fd5b61018361049b565b005b60008060008060009054906101000a900473ffffffffffffffffffffffffffffffffffffffff1673ffffffffffffffffffffffffffffffffffffffff163373ffffffffffffffffffffffffffffffffffffffff161415156101e557600080fd5b600260008773ffffffffffffffffffffffffffffffffffffffff1673ffffffffffffffffffffffffffffffffffffffff16815260200190815260200160002060008673ffffffffffffffffffffffffffffffffffffffff1673ffffffffffffffffffffffffffffffffffffffff168152602001908152602001600020549150620f42408481151561027257fe5b04820290508473ffffffffffffffffffffffffffffffffffffffff166108fc620f42406001548115156102a157fe5b0460010383029081150290604051600060405180830381858888f1935050505015156102cc57600080fd5b8573ffffffffffffffffffffffffffffffffffffffff166108fc620f4240868115156102f457fe5b0460010384029081150290604051600060405180830381858888f19350505050151561031f57600080fd5b6000809054906101000a900473ffffffffffffffffffffffffffffffffffffffff1673ffffffffffffffffffffffffffffffffffffffff166108fc620f424060015481151561036a57fe5b0483029081150290604051600060405180830381858888f19350505050151561039257600080fd5b6001925050509392505050565b6000809054906101000a900473ffffffffffffffffffffffffffffffffffffffff1673ffffffffffffffffffffffffffffffffffffffff163373ffffffffffffffffffffffffffffffffffffffff161415156103fa57600080fd5b8060018190555050565b6000600154905090565b34600260003373ffffffffffffffffffffffffffffffffffffffff1673ffffffffffffffffffffffffffffffffffffffff16815260200190815260200160002060008373ffffffffffffffffffffffffffffffffffffffff1673ffffffffffffffffffffffffffffffffffffffff1681526020019081526020016000206000828254019250508190555050565b336000806101000a81548173ffffffffffffffffffffffffffffffffffffffff021916908373ffffffffffffffffffffffffffffffffffffffff1602179055505600a165627a7a72305820df6dc649926aea895220ce42b4b622584ac6dbccc805c1410e5028fb912376700029",
  "source": "pragma solidity ^0.4.17;\n\ncontract Escrow {\n  address owner;\n  uint fee;\n  mapping (address =>  mapping (address => uint)) balances;\n\n  function escrow() public {\n    owner = msg.sender;\n  }\n\n  modifier onlyOwner {\n    require(msg.sender == owner);\n    _;\n  }\n\n  //Fee should be set in PPM\n  function setFee(uint fee) onlyOwner external {\n    Escrow.fee = fee;\n  }\n\n  function start(address payee) external {\n    balances[msg.sender][payee] += msg.value;\n  }\n\n  //Portion should be percentage of value to pay in PPM\n  function end(address payer, address payee, uint portion) onlyOwner external returns(bool) {\n    uint value = balances[payer][payee];\n    uint payment = value * (portion / 1000000);\n    payee.transfer(payment * (1 - (fee / 1000000)));\n    payer.transfer(value * (1 - (portion / 1000000)));\n    owner.transfer(payment * (fee / 1000000));\n    return true;\n  }\n\n  function getFee() public view returns (uint) {\n    return fee;\n  }\n\n}",
  "sourcePath": "/home/jonathan/git/dimpull-frontend/src/contracts/Escrow.sol",
  "compiler": {
    "name": "solc",
    "version": "0.4.18+commit.9cf6e910.Emscripten.clang"
  },
  "schemaVersion": "1.0.1",
  "updatedAt": "2018-01-14T21:32:08.051Z"
}