{
  "contractName": "Escrow",
  "abi": [
    {
      "constant": false,
      "inputs": [
        {
          "name": "payer",
          "type": "address"
        },
        {
          "name": "payee",
          "type": "address"
        }
      ],
      "name": "refund",
      "outputs": [
        {
          "name": "",
          "type": "bool"
        }
      ],
      "payable": false,
      "stateMutability": "nonpayable",
      "type": "function"
    },
    {
      "constant": false,
      "inputs": [
        {
          "name": "price",
          "type": "uint256"
        }
      ],
      "name": "setFee",
      "outputs": [],
      "payable": false,
      "stateMutability": "nonpayable",
      "type": "function"
    },
    {
      "constant": true,
      "inputs": [],
      "name": "owner",
      "outputs": [
        {
          "name": "",
          "type": "address"
        }
      ],
      "payable": false,
      "stateMutability": "view",
      "type": "function"
    },
    {
      "constant": false,
      "inputs": [
        {
          "name": "payer",
          "type": "address"
        },
        {
          "name": "payee",
          "type": "address"
        }
      ],
      "name": "end",
      "outputs": [
        {
          "name": "",
          "type": "bool"
        }
      ],
      "payable": false,
      "stateMutability": "nonpayable",
      "type": "function"
    },
    {
      "constant": true,
      "inputs": [
        {
          "name": "",
          "type": "address"
        },
        {
          "name": "",
          "type": "address"
        }
      ],
      "name": "balances",
      "outputs": [
        {
          "name": "",
          "type": "uint256"
        }
      ],
      "payable": false,
      "stateMutability": "view",
      "type": "function"
    },
    {
      "constant": false,
      "inputs": [
        {
          "name": "payee",
          "type": "address"
        }
      ],
      "name": "start",
      "outputs": [],
      "payable": true,
      "stateMutability": "payable",
      "type": "function"
    },
    {
      "constant": true,
      "inputs": [],
      "name": "fee",
      "outputs": [
        {
          "name": "",
          "type": "uint256"
        }
      ],
      "payable": false,
      "stateMutability": "view",
      "type": "function"
    },
    {
      "inputs": [],
      "payable": false,
      "stateMutability": "nonpayable",
      "type": "constructor"
    }
  ],
  "bytecode": "0x6060604052341561000f57600080fd5b60008054600160a060020a033316600160a060020a03199091161790556103ba8061003b6000396000f3006060604052600436106100825763ffffffff7c01000000000000000000000000000000000000000000000000000000006000350416635e30b8a6811461008757806369fe0e2d146100c05780638da5cb5b146100d8578063a528915814610107578063c23f001f1461012c578063dd0b281e14610163578063ddca3f4314610177575b600080fd5b341561009257600080fd5b6100ac600160a060020a036004358116906024351661018a565b604051901515815260200160405180910390f35b34156100cb57600080fd5b6100d6600435610207565b005b34156100e357600080fd5b6100eb610227565b604051600160a060020a03909116815260200160405180910390f35b341561011257600080fd5b6100ac600160a060020a0360043581169060243516610236565b341561013757600080fd5b610151600160a060020a036004358116906024351661033b565b60405190815260200160405180910390f35b6100d6600160a060020a0360043516610358565b341561018257600080fd5b610151610388565b60008054819033600160a060020a039081169116146101a857600080fd5b50600160a060020a03838116600081815260026020908152604080832094871683529390528281208054919055916108fc83150290839051600060405180830381858888f1935050505015156101fd57600080fd5b5060019392505050565b60005433600160a060020a0390811691161461022257600080fd5b600155565b600054600160a060020a031681565b6000805481908190819033600160a060020a0390811691161461025857600080fd5b600160a060020a03808716600090815260026020908152604080832093891683529290522054600154909350620f424081151561029157fe5b048381151561029c57fe5b600160a060020a038089166000908152600260209081526040808320938b16808452939091528082209190915592909104935083850392509082156108fc0290839051600060405180830381858888f1935050505015156102fc57600080fd5b600054600160a060020a031682156108fc0283604051600060405180830381858888f19350505050151561032f57600080fd5b50600195945050505050565b600260209081526000928352604080842090915290825290205481565b600160a060020a033381166000908152600260209081526040808320949093168252929092529020805434019055565b600154815600a165627a7a723058206966c2d7fd67167087334cd48ded7afe1d4f2b4d933f66b7dfed07d0bdd98d5b0029",
  "source": "pragma solidity ^0.4.13;\n\ncontract Escrow {\n  address public owner;\n  uint public fee;\n  mapping (address =>  mapping (address => uint)) public balances;\n\n  function Escrow() public {\n    owner = msg.sender;\n  }\n\n  modifier onlyOwner() {\n    require(msg.sender == owner);\n    _;\n  }\n\n  function setFee(uint price) onlyOwner external {\n    fee = price;\n  }\n\n  function start(address payee) payable external {\n    balances[msg.sender][payee] = balances[msg.sender][payee] + msg.value;\n  }\n\n  function end(address payer, address payee) onlyOwner external returns(bool){\n    uint value = balances[payer][payee];\n    uint paidFee = value / (1000000 / fee);\n    uint payment = value - paidFee;\n    balances[payer][payee] = 0;\n    payee.transfer(payment);\n    owner.transfer(paidFee);\n    return true;\n  }\n  \n  function refund(address payer, address payee) onlyOwner external returns(bool){\n    uint value = balances[payer][payee];\n    balances[payer][payee] = 0;\n    payer.transfer(value);\n    return true;\n  }\n}",
  "sourcePath": "/home/jonathan/git/dimpull-frontend/src/contracts/Escrow.sol",
  "compiler": {
    "name": "solc",
    "version": "0.4.18+commit.9cf6e910.Emscripten.clang"
  },
  "schemaVersion": "1.0.1",
  "updatedAt": "2018-05-21T18:37:50.862Z"
}